{
  "_format": "hh-sol-artifact-1",
  "contractName": "CoFiXAnchorPool",
  "sourceName": "contracts/CoFiXAnchorPool.sol",
  "abi": [
    {
      "inputs": [],
      "stateMutability": "nonpayable",
      "type": "constructor"
    },
    {
      "anonymous": false,
      "inputs": [
        {
          "indexed": false,
          "internalType": "address",
          "name": "token",
          "type": "address"
        },
        {
          "indexed": false,
          "internalType": "address",
          "name": "to",
          "type": "address"
        },
        {
          "indexed": false,
          "internalType": "uint256",
          "name": "liquidity",
          "type": "uint256"
        },
        {
          "indexed": false,
          "internalType": "uint256",
          "name": "amountETHOut",
          "type": "uint256"
        },
        {
          "indexed": false,
          "internalType": "uint256",
          "name": "amountTokenOut",
          "type": "uint256"
        }
      ],
      "name": "Burn",
      "type": "event"
    },
    {
      "anonymous": false,
      "inputs": [
        {
          "indexed": false,
          "internalType": "address",
          "name": "token",
          "type": "address"
        },
        {
          "indexed": false,
          "internalType": "address",
          "name": "to",
          "type": "address"
        },
        {
          "indexed": false,
          "internalType": "uint256",
          "name": "amountETH",
          "type": "uint256"
        },
        {
          "indexed": false,
          "internalType": "uint256",
          "name": "amountToken",
          "type": "uint256"
        },
        {
          "indexed": false,
          "internalType": "uint256",
          "name": "liquidity",
          "type": "uint256"
        }
      ],
      "name": "Mint",
      "type": "event"
    },
    {
      "inputs": [],
      "name": "_governance",
      "outputs": [
        {
          "internalType": "address",
          "name": "",
          "type": "address"
        }
      ],
      "stateMutability": "view",
      "type": "function"
    },
    {
      "inputs": [
        {
          "internalType": "address",
          "name": "token",
          "type": "address"
        },
        {
          "internalType": "address",
          "name": "to",
          "type": "address"
        },
        {
          "internalType": "uint256",
          "name": "liquidity",
          "type": "uint256"
        },
        {
          "internalType": "address",
          "name": "payback",
          "type": "address"
        }
      ],
      "name": "burn",
      "outputs": [
        {
          "internalType": "uint256",
          "name": "amountETHOut",
          "type": "uint256"
        },
        {
          "internalType": "uint256",
          "name": "amountTokenOut",
          "type": "uint256"
        }
      ],
      "stateMutability": "payable",
      "type": "function"
    },
    {
      "inputs": [
        {
          "internalType": "address",
          "name": "token",
          "type": "address"
        },
        {
          "internalType": "uint256",
          "name": "newBalance",
          "type": "uint256"
        }
      ],
      "name": "estimate",
      "outputs": [
        {
          "internalType": "uint256",
          "name": "mined",
          "type": "uint256"
        }
      ],
      "stateMutability": "view",
      "type": "function"
    },
    {
      "inputs": [],
      "name": "getConfig",
      "outputs": [
        {
          "internalType": "uint16",
          "name": "theta",
          "type": "uint16"
        },
        {
          "internalType": "uint16",
          "name": "impactCostVOL",
          "type": "uint16"
        },
        {
          "internalType": "uint56",
          "name": "nt",
          "type": "uint56"
        }
      ],
      "stateMutability": "view",
      "type": "function"
    },
    {
      "inputs": [
        {
          "internalType": "address",
          "name": "token",
          "type": "address"
        }
      ],
      "name": "getXToken",
      "outputs": [
        {
          "internalType": "address",
          "name": "",
          "type": "address"
        }
      ],
      "stateMutability": "view",
      "type": "function"
    },
    {
      "inputs": [
        {
          "internalType": "address",
          "name": "governance",
          "type": "address"
        },
        {
          "internalType": "uint256",
          "name": "index",
          "type": "uint256"
        },
        {
          "internalType": "address[]",
          "name": "tokens",
          "type": "address[]"
        },
        {
          "internalType": "uint96[]",
          "name": "bases",
          "type": "uint96[]"
        }
      ],
      "name": "init",
      "outputs": [],
      "stateMutability": "nonpayable",
      "type": "function"
    },
    {
      "inputs": [
        {
          "internalType": "address",
          "name": "governance",
          "type": "address"
        }
      ],
      "name": "initialize",
      "outputs": [],
      "stateMutability": "nonpayable",
      "type": "function"
    },
    {
      "inputs": [
        {
          "internalType": "address",
          "name": "tokenAddress",
          "type": "address"
        },
        {
          "internalType": "uint256",
          "name": "value",
          "type": "uint256"
        }
      ],
      "name": "migrate",
      "outputs": [],
      "stateMutability": "nonpayable",
      "type": "function"
    },
    {
      "inputs": [
        {
          "internalType": "address",
          "name": "token",
          "type": "address"
        },
        {
          "internalType": "address",
          "name": "to",
          "type": "address"
        },
        {
          "internalType": "uint256",
          "name": "amountETH",
          "type": "uint256"
        },
        {
          "internalType": "uint256",
          "name": "amountToken",
          "type": "uint256"
        },
        {
          "internalType": "address",
          "name": "payback",
          "type": "address"
        }
      ],
      "name": "mint",
      "outputs": [
        {
          "internalType": "address",
          "name": "xtoken",
          "type": "address"
        },
        {
          "internalType": "uint256",
          "name": "liquidity",
          "type": "uint256"
        }
      ],
      "stateMutability": "payable",
      "type": "function"
    },
    {
      "inputs": [
        {
          "internalType": "uint16",
          "name": "theta",
          "type": "uint16"
        },
        {
          "internalType": "uint16",
          "name": "impactCostVOL",
          "type": "uint16"
        },
        {
          "internalType": "uint56",
          "name": "nt",
          "type": "uint56"
        }
      ],
      "name": "setConfig",
      "outputs": [],
      "stateMutability": "nonpayable",
      "type": "function"
    },
    {
      "inputs": [],
      "name": "skim",
      "outputs": [],
      "stateMutability": "nonpayable",
      "type": "function"
    },
    {
      "inputs": [
        {
          "internalType": "address",
          "name": "src",
          "type": "address"
        },
        {
          "internalType": "address",
          "name": "dest",
          "type": "address"
        },
        {
          "internalType": "uint256",
          "name": "amountIn",
          "type": "uint256"
        },
        {
          "internalType": "address",
          "name": "to",
          "type": "address"
        },
        {
          "internalType": "address",
          "name": "payback",
          "type": "address"
        }
      ],
      "name": "swap",
      "outputs": [
        {
          "internalType": "uint256",
          "name": "amountOut",
          "type": "uint256"
        },
        {
          "internalType": "uint256",
          "name": "mined",
          "type": "uint256"
        }
      ],
      "stateMutability": "payable",
      "type": "function"
    },
    {
      "inputs": [
        {
          "internalType": "address",
          "name": "newGovernance",
          "type": "address"
        }
      ],
      "name": "update",
      "outputs": [],
      "stateMutability": "nonpayable",
      "type": "function"
    }
  ],
  "bytecode": "0x608060405234801561001057600080fd5b506143aa806100206000396000f3fe608060405260043610620000e35760003560e01c8063738240fb1162000089578063c3f909d41162000060578063c3f909d41462000275578063c4d66de814620002e0578063fa28d6921462000305578063fa291e53146200034957600080fd5b8063738240fb14620001f7578063a04bdb64146200021c578063ad68ebf7146200025057600080fd5b80633ae92ba111620000be5780633ae92ba1146200018057806344c133e214620001a55780634cb2b6b114620001d257600080fd5b80631c1b877214620000e85780631c2f3e3d146200010f5780631dd19cb41462000168575b600080fd5b348015620000f557600080fd5b506200010d620001073660046200311d565b62000360565b005b3480156200011c57600080fd5b506002546200013e9073ffffffffffffffffffffffffffffffffffffffff1681565b60405173ffffffffffffffffffffffffffffffffffffffff90911681526020015b60405180910390f35b3480156200017557600080fd5b506200010d62000445565b3480156200018d57600080fd5b506200010d6200019f3660046200334a565b6200063c565b620001bc620001b636600462003252565b6200093d565b604080519283526020830191909152016200015f565b348015620001df57600080fd5b506200013e620001f13660046200311d565b62000d81565b3480156200020457600080fd5b506200010d6200021636600462003403565b62000e0a565b3480156200022957600080fd5b50620002416200023b3660046200331b565b62001051565b6040519081526020016200015f565b3480156200025d57600080fd5b506200010d6200026f3660046200331b565b620012e1565b3480156200028257600080fd5b506004546040805174010000000000000000000000000000000000000000830461ffff1681526000602082015276010000000000000000000000000000000000000000000090920466ffffffffffffff16908201526060016200015f565b348015620002ed57600080fd5b506200010d620002ff3660046200311d565b6200154b565b6200031c62000316366004620032c3565b62001614565b6040805173ffffffffffffffffffffffffffffffffffffffff90931683526020830191909152016200015f565b620001bc6200035a366004620031f8565b62001b19565b6200036b8162001ed5565b8073ffffffffffffffffffffffffffffffffffffffff1663746b56f96040518163ffffffff1660e01b815260040160c06040518083038186803b158015620003b257600080fd5b505afa158015620003c7573d6000803e3d6000fd5b505050506040513d601f19601f82011682018060405250810190620003ed919062003164565b50506004805473ffffffffffffffffffffffffffffffffffffffff9283167fffffffffffffffffffffffff00000000000000000000000000000000000000009182161790915560038054929093169116179055505050565b60008060008080600080600580549050905060005b81811015620005f2576000600582815481106200047b576200047b620036cc565b600091825260208220600490910201805490925073ffffffffffffffffffffffffffffffffffffffff1690620004b18262002133565b83549091507401000000000000000000000000000000000000000090046bffffffffffffffffffffffff16600081620004f384670de0b6b3a764000062003592565b620004ff91906200357b565b90506200050d818e62003560565b9c508460010160009054906101000a900473ffffffffffffffffffffffffffffffffffffffff1673ffffffffffffffffffffffffffffffffffffffff166318160ddd6040518163ffffffff1660e01b815260040160206040518083038186803b1580156200057a57600080fd5b505afa1580156200058f573d6000803e3d6000fd5b505050506040513d601f19601f82011682018060405250810190620005b591906200345c565b620005c1908d62003560565b9b50808b1015620005d957819950829850839750809a505b505050505080620005ea906200361b565b90506200045a565b50858711156200063357620006336200060c8789620035d2565b600354849087908790339073ffffffffffffffffffffffffffffffffffffffff1662002201565b50505050505050565b62000647866200154b565b6000620006548662002467565b905060005b8481101562000933576000868683818110620006795762000679620036cc565b90506020020160208101906200069091906200311d565b60058054600181019182905573ffffffffffffffffffffffffffffffffffffffff831660009081526006602052604081209290925591925060049091027f036b6384b5eca791c62761152d0c79bb0604c104a5fb6f4eb0703f3154bb3db00190620006fb8462002467565b905060006200078b62000784620007486040518060400160405280600781526020017f58546f6b656e2d000000000000000000000000000000000000000000000000008152508962002603565b6040518060400160405280600181526020017f2d0000000000000000000000000000000000000000000000000000000000000081525062002603565b8362002603565b90506000620007df620007d8620007486040518060400160405280600381526020017f58542d00000000000000000000000000000000000000000000000000000000008152508a62002603565b8462002603565b84547fffffffffffffffffffffffff00000000000000000000000000000000000000001673ffffffffffffffffffffffffffffffffffffffff87161785556040519091508290829030906200083490620030ad565b620008429392919062003510565b604051809103906000f0801580156200085f573d6000803e3d6000fd5b506001850180547fffffffffffffffffffffffff00000000000000000000000000000000000000001673ffffffffffffffffffffffffffffffffffffffff92909216919091179055888887818110620008bc57620008bc620036cc565b9050602002016020810190620008d3919062003476565b84546bffffffffffffffffffffffff91909116740100000000000000000000000000000000000000000273ffffffffffffffffffffffffffffffffffffffff90911617909355506200092b92508391506200361b9050565b905062000659565b5050505050505050565b600454600090819073ffffffffffffffffffffffffffffffffffffffff163314620009ef576040517f08c379a000000000000000000000000000000000000000000000000000000000815260206004820152602560248201527f436f466958416e63686f72506f6f6c3a204f6e6c7920666f7220436f4669585260448201527f6f7574657200000000000000000000000000000000000000000000000000000060648201526084015b60405180910390fd5b6004547d010000000000000000000000000000000000000000000000000000000000900460ff161562000a7f576040517f08c379a000000000000000000000000000000000000000000000000000000000815260206004820152601760248201527f436f466958416e63686f72506f6f6c3a204c4f434b45440000000000000000006044820152606401620009e6565b600480547fffff00ffffffffffffffffffffffffffffffffffffffffffffffffffffffffff167d01000000000000000000000000000000000000000000000000000000000017905573ffffffffffffffffffffffffffffffffffffffff871662000b025762000afc60008462000af68834620035d2565b620027d4565b62000b4e565b341562000b4e5760405173ffffffffffffffffffffffffffffffffffffffff8416903480156108fc02916000818181858888f1935050505015801562000b4c573d6000803e3d6000fd5b505b73ffffffffffffffffffffffffffffffffffffffff871660009081526006602052604081205460059062000b8590600190620035d2565b8154811062000b985762000b98620036cc565b6000918252602080832073ffffffffffffffffffffffffffffffffffffffff8b16845260069091526040832054600490920201925060059062000bde90600190620035d2565b8154811062000bf15762000bf1620036cc565b60009182526020909120835460049092020180549092506bffffffffffffffffffffffff7401000000000000000000000000000000000000000092839004811692909104168162000c43828b62003592565b62000c4f91906200357b565b6004549096506000906127109062000c849074010000000000000000000000000000000000000000900461ffff168962003592565b62000c9091906200357b565b905062000c9e8188620035d2565b965062000cad848c836200284e565b50600454760100000000000000000000000000000000000000000000900466ffffffffffffff1662000d0c858462000ce58f62002133565b62000cf990670de0b6b3a764000062003592565b62000d0591906200357b565b836200295a565b955062000d2c84838962000d208f62002133565b62000ce59190620035d2565b62000d38908762003560565b955062000d478b8a89620027d4565b5050600480547fffff00ffffffffffffffffffffffffffffffffffffffffffffffffffffffffff1690555092989197509095505050505050565b73ffffffffffffffffffffffffffffffffffffffff8116600090815260066020526040812054801562000e0157600562000dbd600183620035d2565b8154811062000dd05762000dd0620036cc565b600091825260209091206001600490920201015473ffffffffffffffffffffffffffffffffffffffff169392505050565b50600092915050565b6002546040517f91e1472b0000000000000000000000000000000000000000000000000000000081523360048201526000602482015273ffffffffffffffffffffffffffffffffffffffff909116906391e1472b9060440160206040518083038186803b15801562000e7b57600080fd5b505afa15801562000e90573d6000803e3d6000fd5b505050506040513d601f19601f8201168201806040525081019062000eb69190620033df565b62000f1e576040517f08c379a000000000000000000000000000000000000000000000000000000000815260206004820152600a60248201527f436f4669583a21676f76000000000000000000000000000000000000000000006044820152606401620009e6565b6004805461ffff80861674010000000000000000000000000000000000000000027fffffffffffffffffffff0000ffffffffffffffffffffffffffffffffffffffff9092169190911790915582161562000ffb576040517f08c379a000000000000000000000000000000000000000000000000000000000815260206004820152602860248201527f436f466958416e63686f72506f6f6c3a20696d70616374436f7374564f4c206d60448201527f75737420626520300000000000000000000000000000000000000000000000006064820152608401620009e6565b6004805466ffffffffffffff909216760100000000000000000000000000000000000000000000027fffffff00000000000000ffffffffffffffffffffffffffffffffffffffffffff9092169190911790555050565b73ffffffffffffffffffffffffffffffffffffffff821660009081526006602052604081205481906005906200108a90600190620035d2565b815481106200109d576200109d620036cc565b9060005260206000209060040201905060008160010160009054906101000a900473ffffffffffffffffffffffffffffffffffffffff1673ffffffffffffffffffffffffffffffffffffffff166318160ddd6040518163ffffffff1660e01b815260040160206040518083038186803b1580156200111a57600080fd5b505afa1580156200112f573d6000803e3d6000fd5b505050506040513d601f19601f820116820180604052508101906200115591906200345c565b82549091506000907401000000000000000000000000000000000000000090046bffffffffffffffffffffffff166200119786670de0b6b3a764000062003592565b620011a391906200357b565b90506000818311620011c157620011bb8383620035d2565b620011cd565b620011cd8284620035d2565b60028501549091506e01000000000000000000000000000090046dffffffffffffffffffffffffffff1681811115620012d6576002850154600090633b9aca009062001240907c0100000000000000000000000000000000000000000000000000000000900463ffffffff1643620035d2565b6004546200127290760100000000000000000000000000000000000000000000900466ffffffffffffff168562003592565b6200127e919062003592565b6200128a91906200357b565b6002870154620012ab91906dffffffffffffffffffffffffffff1662003560565b905081620012ba8482620035d2565b620012c6908362003592565b620012d291906200357b565b9650505b505050505092915050565b6002546040517f91e1472b0000000000000000000000000000000000000000000000000000000081523360048201526000602482015273ffffffffffffffffffffffffffffffffffffffff909116906391e1472b9060440160206040518083038186803b1580156200135257600080fd5b505afa15801562001367573d6000803e3d6000fd5b505050506040513d601f19601f820116820180604052508101906200138d9190620033df565b620013f5576040517f08c379a000000000000000000000000000000000000000000000000000000000815260206004820152600a60248201527f436f4669583a21676f76000000000000000000000000000000000000000000006044820152606401620009e6565b600254604080517f96776492000000000000000000000000000000000000000000000000000000008152905160009273ffffffffffffffffffffffffffffffffffffffff16916396776492916004808301926020929190829003018186803b1580156200146157600080fd5b505afa15801562001476573d6000803e3d6000fd5b505050506040513d601f19601f820116820180604052508101906200149c919062003144565b905073ffffffffffffffffffffffffffffffffffffffff831662001539576040517fdaa78c0f0000000000000000000000000000000000000000000000000000000081526000600482015273ffffffffffffffffffffffffffffffffffffffff82169063daa78c0f9084906024016000604051808303818588803b1580156200152457600080fd5b505af115801562000933573d6000803e3d6000fd5b6200154683828462002bc3565b505050565b60025473ffffffffffffffffffffffffffffffffffffffff1615620015cd576040517f08c379a000000000000000000000000000000000000000000000000000000000815260206004820152601160248201527f436f4669583a21696e697469616c697a650000000000000000000000000000006044820152606401620009e6565b600280547fffffffffffffffffffffffff00000000000000000000000000000000000000001673ffffffffffffffffffffffffffffffffffffffff92909216919091179055565b600454600090819073ffffffffffffffffffffffffffffffffffffffff163314620016c2576040517f08c379a000000000000000000000000000000000000000000000000000000000815260206004820152602560248201527f436f466958416e63686f72506f6f6c3a204f6e6c7920666f7220436f4669585260448201527f6f757465720000000000000000000000000000000000000000000000000000006064820152608401620009e6565b6004547d010000000000000000000000000000000000000000000000000000000000900460ff161562001752576040517f08c379a000000000000000000000000000000000000000000000000000000000815260206004820152601760248201527f436f466958416e63686f72506f6f6c3a204c4f434b45440000000000000000006044820152606401620009e6565b600480547fffff00ffffffffffffffffffffffffffffffffffffffffffffffffffffffffff167d010000000000000000000000000000000000000000000000000000000000179055841562001829576040517f08c379a0000000000000000000000000000000000000000000000000000000008152602060048201526024808201527f436f466958416e63686f72506f6f6c3a20696e76616c6964206173736574207260448201527f6174696f000000000000000000000000000000000000000000000000000000006064820152608401620009e6565b73ffffffffffffffffffffffffffffffffffffffff87166200185e576200185860008462000af68734620035d2565b620018aa565b3415620018aa5760405173ffffffffffffffffffffffffffffffffffffffff8416903480156108fc02916000818181858888f19350505050158015620018a8573d6000803e3d6000fd5b505b73ffffffffffffffffffffffffffffffffffffffff8716600090815260066020526040812054600590620018e190600190620035d2565b81548110620018f457620018f4620036cc565b600091825260209091206004909102016001810154815473ffffffffffffffffffffffffffffffffffffffff90911694509091507401000000000000000000000000000000000000000090046bffffffffffffffffffffffff16836340c10f1989836200196a8a670de0b6b3a764000062003592565b6200197691906200357b565b6040517fffffffff0000000000000000000000000000000000000000000000000000000060e085901b16815273ffffffffffffffffffffffffffffffffffffffff90921660048301526024820152604401602060405180830381600087803b158015620019e257600080fd5b505af1158015620019f7573d6000803e3d6000fd5b505050506040513d601f19601f8201168201806040525081019062001a1d91906200345c565b6040805173ffffffffffffffffffffffffffffffffffffffff808d1682528b16602082015290810189905260608101889052608081018290529093507f458f5fa412d0f69b08dd84872b0215675cc67bc1d5b6fd93300a1c3878b861969060a00160405180910390a162001ae3828262001a978c62002133565b62001aab90670de0b6b3a764000062003592565b62001ab791906200357b565b600454760100000000000000000000000000000000000000000000900466ffffffffffffff1662002d3d565b5050600480547fffff00ffffffffffffffffffffffffffffffffffffffffffffffffffffffffff16905590969095509350505050565b600454600090819073ffffffffffffffffffffffffffffffffffffffff16331462001bc7576040517f08c379a000000000000000000000000000000000000000000000000000000000815260206004820152602560248201527f436f466958416e63686f72506f6f6c3a204f6e6c7920666f7220436f4669585260448201527f6f757465720000000000000000000000000000000000000000000000000000006064820152608401620009e6565b6004547d010000000000000000000000000000000000000000000000000000000000900460ff161562001c57576040517f08c379a000000000000000000000000000000000000000000000000000000000815260206004820152601760248201527f436f466958416e63686f72506f6f6c3a204c4f434b45440000000000000000006044820152606401620009e6565b600480547fffff00ffffffffffffffffffffffffffffffffffffffffffffffffffffffffff167d010000000000000000000000000000000000000000000000000000000000179055341562001ceb5760405173ffffffffffffffffffffffffffffffffffffffff8416903480156108fc02916000818181858888f1935050505015801562001ce9573d6000803e3d6000fd5b505b73ffffffffffffffffffffffffffffffffffffffff861660009081526006602052604081205460059062001d2290600190620035d2565b8154811062001d355762001d35620036cc565b6000918252602090912060049091020180549091507401000000000000000000000000000000000000000090046bffffffffffffffffffffffff168062001d8587670de0b6b3a764000062003592565b62001d9191906200357b565b60018301546040517f42966c68000000000000000000000000000000000000000000000000000000008152600481018990526000965091945073ffffffffffffffffffffffffffffffffffffffff16906342966c6890602401600060405180830381600087803b15801562001e0557600080fd5b505af115801562001e1a573d6000803e3d6000fd5b50506040805173ffffffffffffffffffffffffffffffffffffffff808d1682528b16602082015290810189905260608101879052608081018690527f4cf25bc1d991c17529c25213d3cc0cda295eeaad5f13f361969b12ea48015f90925060a001905060405180910390a162001ea086898362001e978c62002133565b8b600062002201565b5050600480547fffff00ffffffffffffffffffffffffffffffffffffffffffffffffffffffffff169055909590945092505050565b60025473ffffffffffffffffffffffffffffffffffffffff163381148062001fa057506040517f91e1472b0000000000000000000000000000000000000000000000000000000081523360048201526000602482015273ffffffffffffffffffffffffffffffffffffffff8216906391e1472b9060440160206040518083038186803b15801562001f6557600080fd5b505afa15801562001f7a573d6000803e3d6000fd5b505050506040513d601f19601f8201168201806040525081019062001fa09190620033df565b62002008576040517f08c379a000000000000000000000000000000000000000000000000000000000815260206004820152600a60248201527f436f4669583a21676f76000000000000000000000000000000000000000000006044820152606401620009e6565b600280547fffffffffffffffffffffffff00000000000000000000000000000000000000001673ffffffffffffffffffffffffffffffffffffffff8416908117909155604080517f746b56f9000000000000000000000000000000000000000000000000000000008152905163746b56f99160048082019260c092909190829003018186803b1580156200209b57600080fd5b505afa158015620020b0573d6000803e3d6000fd5b505050506040513d601f19601f82011682018060405250810190620020d6919062003164565b50506001805473ffffffffffffffffffffffffffffffffffffffff9485167fffffffffffffffffffffffff000000000000000000000000000000000000000091821617909155600080549590941694169390931790915550505050565b600073ffffffffffffffffffffffffffffffffffffffff821662002158575047919050565b6040517f70a0823100000000000000000000000000000000000000000000000000000000815230600482015273ffffffffffffffffffffffffffffffffffffffff8316906370a082319060240160206040518083038186803b158015620021be57600080fd5b505afa158015620021d3573d6000803e3d6000fd5b505050506040513d601f19601f82011682018060405250810190620021f991906200345c565b90505b919050565b600454760100000000000000000000000000000000000000000000900466ffffffffffffff165b861562000633576000670de0b6b3a764000062002246878a62003592565b6200225291906200357b565b73ffffffffffffffffffffffffffffffffffffffff8816600090815260066020526040812054919250906005906200228d90600190620035d2565b81548110620022a057620022a0620036cc565b906000526020600020906004020190508582116200230757620022c68886848762002f65565b620022ff8188620022d8858a620035d2565b620022ec90670de0b6b3a764000062003592565b620022f891906200357b565b8562002d3d565b505062000633565b620023158886888762002f65565b620023238160008562002d3d565b866200233887670de0b6b3a764000062003592565b6200234491906200357b565b62002350908a620035d2565b600554909950600090815b818110156200245c576000600582815481106200237c576200237c620036cc565b60009182526020909120600490910201805490915073ffffffffffffffffffffffffffffffffffffffff908116908d16811462002446576000620023c08262002133565b83549091507401000000000000000000000000000000000000000090046bffffffffffffffffffffffff16806200240083670de0b6b3a764000062003592565b6200240c91906200357b565b8710156200244357809d50819c50829e508082670de0b6b3a764000062002434919062003592565b6200244091906200357b565b96505b50505b50508062002454906200361b565b90506200235b565b505050505062002228565b6040805181815260608181018352916000919060208201818036833701905050905060005b62002499600a8562003657565b620024a690603062003560565b60f81b8282620024b6816200361b565b935081518110620024cb57620024cb620036cc565b60200101907effffffffffffffffffffffffffffffffffffffffffffffffffffffffffffff1916908160001a90535062002507600a856200357b565b9350600084116200248c5760008167ffffffffffffffff811115620025305762002530620036fb565b6040519080825280601f01601f1916602001820160405280156200255b576020820181803683370190505b50905060005b82811015620025fa57836001620025798386620035d2565b620025859190620035d2565b81518110620025985762002598620036cc565b602001015160f81c60f81b828281518110620025b857620025b8620036cc565b60200101907effffffffffffffffffffffffffffffffffffffffffffffffffffffffffffff1916908160001a905350620025f2816200361b565b905062002561565b50949350505050565b80518251606091849184916000916200261d919062003560565b67ffffffffffffffff811115620026385762002638620036fb565b6040519080825280601f01601f19166020018201604052801562002663576020820181803683370190505b509050806000805b855181101562002717578581815181106200268a576200268a620036cc565b01602001517fff00000000000000000000000000000000000000000000000000000000000000168383620026be816200361b565b945081518110620026d357620026d3620036cc565b60200101907effffffffffffffffffffffffffffffffffffffffffffffffffffffffffffff1916908160001a905350806200270e816200361b565b9150506200266b565b5060005b8451811015620027c7578481815181106200273a576200273a620036cc565b01602001517fff000000000000000000000000000000000000000000000000000000000000001683836200276e816200361b565b945081518110620027835762002783620036cc565b60200101907effffffffffffffffffffffffffffffffffffffffffffffffffffffffffffff1916908160001a90535080620027be816200361b565b9150506200271b565b5091979650505050505050565b8015620015465773ffffffffffffffffffffffffffffffffffffffff8316620028415760405173ffffffffffffffffffffffffffffffffffffffff83169082156108fc029083906000818181858888f193505050501580156200283b573d6000803e3d6000fd5b50505050565b6200154683838362002bc3565b600081846003015462002862919062003560565b905069d3c21bcecceda100000081106200294d576000600385015573ffffffffffffffffffffffffffffffffffffffff831662002926576003546040517fdaa78c0f00000000000000000000000000000000000000000000000000000000815230600482015273ffffffffffffffffffffffffffffffffffffffff9091169063daa78c0f9084906024016000604051808303818588803b1580156200290657600080fd5b505af11580156200291b573d6000803e3d6000fd5b50505050506200294d565b6003546200294d90849073ffffffffffffffffffffffffffffffffffffffff1684620027d4565b6003909301929092555050565b6000808460010160009054906101000a900473ffffffffffffffffffffffffffffffffffffffff1673ffffffffffffffffffffffffffffffffffffffff166318160ddd6040518163ffffffff1660e01b815260040160206040518083038186803b158015620029c857600080fd5b505afa158015620029dd573d6000803e3d6000fd5b505050506040513d601f19601f8201168201806040525081019062002a0391906200345c565b9050600084821162002a215762002a1b8286620035d2565b62002a2d565b62002a2d8583620035d2565b60028701549091506e01000000000000000000000000000081046dffffffffffffffffffffffffffff1690600090633b9aca009062002a93907c0100000000000000000000000000000000000000000000000000000000900463ffffffff1643620035d2565b62002a9f888562003592565b62002aab919062003592565b62002ab791906200357b565b600289015462002ad891906dffffffffffffffffffffffffffff1662003560565b90508282111562002b19578162002af08482620035d2565b62002afc908362003592565b62002b0891906200357b565b945062002b168582620035d2565b90505b60029790970180546dffffffffffffffffffffffffffff9889167fffffffff00000000000000000000000000000000000000000000000000000000909116176e0100000000000000000000000000009390981692909202969096177bffffffffffffffffffffffffffffffffffffffffffffffffffffffff167c01000000000000000000000000000000000000000000000000000000004363ffffffff1602179055509392505050565b6040805173ffffffffffffffffffffffffffffffffffffffff8481166024830152604480830185905283518084039091018152606490920183526020820180517bffffffffffffffffffffffffffffffffffffffffffffffffffffffff167fa9059cbb00000000000000000000000000000000000000000000000000000000179052915160009283929087169162002c5c9190620034f2565b6000604051808303816000865af19150503d806000811462002c9b576040519150601f19603f3d011682016040523d82523d6000602084013e62002ca0565b606091505b509150915081801562002cce57508051158062002cce57508080602001905181019062002cce9190620033df565b62002d36576040517f08c379a000000000000000000000000000000000000000000000000000000000815260206004820152601f60248201527f5472616e7366657248656c7065723a205452414e534645525f4641494c4544006044820152606401620009e6565b5050505050565b6001830154604080517f18160ddd000000000000000000000000000000000000000000000000000000008152905160009273ffffffffffffffffffffffffffffffffffffffff16916318160ddd916004808301926020929190829003018186803b15801562002dab57600080fd5b505afa15801562002dc0573d6000803e3d6000fd5b505050506040513d601f19601f8201168201806040525081019062002de691906200345c565b9050600083821162002e045762002dfe8285620035d2565b62002e10565b62002e108483620035d2565b60028601549091506e01000000000000000000000000000081046dffffffffffffffffffffffffffff1690600090633b9aca009062002e76907c0100000000000000000000000000000000000000000000000000000000900463ffffffff1643620035d2565b62002e82878562003592565b62002e8e919062003592565b62002e9a91906200357b565b600288015462002ebb91906dffffffffffffffffffffffffffff1662003560565b60029790970180546dffffffffffffffffffffffffffff9889167fffffffff00000000000000000000000000000000000000000000000000000000909116176e0100000000000000000000000000009490981693909302969096177bffffffffffffffffffffffffffffffffffffffffffffffffffffffff167c01000000000000000000000000000000000000000000000000000000004363ffffffff1602179091555050505050565b73ffffffffffffffffffffffffffffffffffffffff811662002f945762002f8e848484620027d4565b6200283b565b600182901c73ffffffffffffffffffffffffffffffffffffffff85166200308e5773ffffffffffffffffffffffffffffffffffffffff84166108fc62002fdb8386620035d2565b6040518115909202916000818181858888f1935050505015801562003004573d6000803e3d6000fd5b506040517fdaa78c0f00000000000000000000000000000000000000000000000000000000815230600482015273ffffffffffffffffffffffffffffffffffffffff83169063daa78c0f9083906024016000604051808303818588803b1580156200306e57600080fd5b505af115801562003083573d6000803e3d6000fd5b505050505062002d36565b620030a0858562000af68487620035d2565b62002d36858383620027d4565b610c24806200375183390190565b60008083601f840112620030ce57600080fd5b50813567ffffffffffffffff811115620030e757600080fd5b6020830191508360208260051b85010111156200310357600080fd5b9250929050565b803561ffff81168114620021fc57600080fd5b6000602082840312156200313057600080fd5b81356200313d816200372a565b9392505050565b6000602082840312156200315757600080fd5b81516200313d816200372a565b60008060008060008060c087890312156200317e57600080fd5b86516200318b816200372a565b60208801519096506200319e816200372a565b6040880151909550620031b1816200372a565b6060880151909450620031c4816200372a565b6080880151909350620031d7816200372a565b60a0880151909250620031ea816200372a565b809150509295509295509295565b600080600080608085870312156200320f57600080fd5b84356200321c816200372a565b935060208501356200322e816200372a565b925060408501359150606085013562003247816200372a565b939692955090935050565b600080600080600060a086880312156200326b57600080fd5b853562003278816200372a565b945060208601356200328a816200372a565b9350604086013592506060860135620032a3816200372a565b91506080860135620032b5816200372a565b809150509295509295909350565b600080600080600060a08688031215620032dc57600080fd5b8535620032e9816200372a565b94506020860135620032fb816200372a565b935060408601359250606086013591506080860135620032b5816200372a565b600080604083850312156200332f57600080fd5b82356200333c816200372a565b946020939093013593505050565b600080600080600080608087890312156200336457600080fd5b863562003371816200372a565b955060208701359450604087013567ffffffffffffffff808211156200339657600080fd5b620033a48a838b01620030bb565b90965094506060890135915080821115620033be57600080fd5b50620033cd89828a01620030bb565b979a9699509497509295939492505050565b600060208284031215620033f257600080fd5b815180151581146200313d57600080fd5b6000806000606084860312156200341957600080fd5b62003424846200310a565b925062003434602085016200310a565b9150604084013566ffffffffffffff811681146200345157600080fd5b809150509250925092565b6000602082840312156200346f57600080fd5b5051919050565b6000602082840312156200348957600080fd5b81356bffffffffffffffffffffffff811681146200313d57600080fd5b60008151808452620034c0816020860160208601620035ec565b601f017fffffffffffffffffffffffffffffffffffffffffffffffffffffffffffffffe0169290920160200192915050565b6000825162003506818460208701620035ec565b9190910192915050565b606081526000620035256060830186620034a6565b8281036020840152620035398186620034a6565b91505073ffffffffffffffffffffffffffffffffffffffff83166040830152949350505050565b600082198211156200357657620035766200366e565b500190565b6000826200358d576200358d6200369d565b500490565b6000817fffffffffffffffffffffffffffffffffffffffffffffffffffffffffffffffff0483118215151615620035cd57620035cd6200366e565b500290565b600082821015620035e757620035e76200366e565b500390565b60005b8381101562003609578181015183820152602001620035ef565b838111156200283b5750506000910152565b60007fffffffffffffffffffffffffffffffffffffffffffffffffffffffffffffffff8214156200365057620036506200366e565b5060010190565b6000826200366957620036696200369d565b500690565b7f4e487b7100000000000000000000000000000000000000000000000000000000600052601160045260246000fd5b7f4e487b7100000000000000000000000000000000000000000000000000000000600052601260045260246000fd5b7f4e487b7100000000000000000000000000000000000000000000000000000000600052603260045260246000fd5b7f4e487b7100000000000000000000000000000000000000000000000000000000600052604160045260246000fd5b73ffffffffffffffffffffffffffffffffffffffff811681146200374d57600080fd5b5056fe60a06040523480156200001157600080fd5b5060405162000c2438038062000c248339810160408190526200003491620001d6565b82516200004990600390602086019062000079565b5081516200005f90600490602085019062000079565b5060601b6001600160601b03191660805250620002b69050565b828054620000879062000263565b90600052602060002090601f016020900481019282620000ab5760008555620000f6565b82601f10620000c657805160ff1916838001178555620000f6565b82800160010185558215620000f6579182015b82811115620000f6578251825591602001919060010190620000d9565b506200010492915062000108565b5090565b5b8082111562000104576000815560010162000109565b600082601f8301126200013157600080fd5b81516001600160401b03808211156200014e576200014e620002a0565b604051601f8301601f19908116603f01168101908282118183101715620001795762000179620002a0565b816040528381526020925086838588010111156200019657600080fd5b600091505b83821015620001ba57858201830151818301840152908201906200019b565b83821115620001cc5760008385830101525b9695505050505050565b600080600060608486031215620001ec57600080fd5b83516001600160401b03808211156200020457600080fd5b62000212878388016200011f565b945060208601519150808211156200022957600080fd5b5062000238868287016200011f565b604086015190935090506001600160a01b03811681146200025857600080fd5b809150509250925092565b600181811c908216806200027857607f821691505b602082108114156200029a57634e487b7160e01b600052602260045260246000fd5b50919050565b634e487b7160e01b600052604160045260246000fd5b60805160601c61094f620002d56000396000610379015261094f6000f3fe608060405234801561001057600080fd5b50600436106100c95760003560e01c806340c10f191161008157806395d89b411161005b57806395d89b411461019b578063a9059cbb146101a3578063dd62ed3e146101b657600080fd5b806340c10f191461015357806342966c681461016657806370a082311461017b57600080fd5b806318160ddd116100b257806318160ddd1461010f57806323b872dd14610126578063313ce5671461013957600080fd5b806306fdde03146100ce578063095ea7b3146100ec575b600080fd5b6100d66101e1565b6040516100e391906107fa565b60405180910390f35b6100ff6100fa3660046107b7565b61026f565b60405190151581526020016100e3565b61011860005481565b6040519081526020016100e3565b6100ff61013436600461077b565b610285565b610141601281565b60405160ff90911681526020016100e3565b6101186101613660046107b7565b61035f565b6101796101743660046107e1565b61043a565b005b610118610189366004610726565b60016020526000908152604090205481565b6100d6610447565b6100ff6101b13660046107b7565b610454565b6101186101c4366004610748565b600260209081526000928352604080842090915290825290205481565b600380546101ee9061089c565b80601f016020809104026020016040519081016040528092919081815260200182805461021a9061089c565b80156102675780601f1061023c57610100808354040283529160200191610267565b820191906000526020600020905b81548152906001019060200180831161024a57829003601f168201915b505050505081565b600061027c338484610461565b50600192915050565b73ffffffffffffffffffffffffffffffffffffffff831660009081526002602090815260408083203384529091528120547fffffffffffffffffffffffffffffffffffffffffffffffffffffffffffffffff1461034a5773ffffffffffffffffffffffffffffffffffffffff84166000908152600260209081526040808320338452909152902054610318908390610885565b73ffffffffffffffffffffffffffffffffffffffff851660009081526002602090815260408083203384529091529020555b6103558484846104d0565b5060019392505050565b60003373ffffffffffffffffffffffffffffffffffffffff7f0000000000000000000000000000000000000000000000000000000000000000161461042a576040517f08c379a000000000000000000000000000000000000000000000000000000000815260206004820152602a60248201527f436f466958416e63686f72546f6b656e3a204f6e6c7920666f7220436f46695860448201527f416e63686f72506f6f6c00000000000000000000000000000000000000000000606482015260840160405180910390fd5b610434838361059f565b50919050565b610444338261064a565b50565b600480546101ee9061089c565b600061027c3384846104d0565b73ffffffffffffffffffffffffffffffffffffffff83811660008181526002602090815260408083209487168084529482529182902085905590518481527f8c5be1e5ebec7d5bd14f71427d1e84f3dd0314c0f7b2291e5b200ac8c7c3b92591015b60405180910390a3505050565b73ffffffffffffffffffffffffffffffffffffffff8316600090815260016020526040902054610501908290610885565b73ffffffffffffffffffffffffffffffffffffffff808516600090815260016020526040808220939093559084168152205461053e90829061086d565b73ffffffffffffffffffffffffffffffffffffffff80841660008181526001602052604090819020939093559151908516907fddf252ad1be2c89b69c2b068fc378daa952ba7f163c4a11628f55a4df523b3ef906104c39085815260200190565b806000546105ad919061086d565b600090815573ffffffffffffffffffffffffffffffffffffffff83168152600160205260409020546105e090829061086d565b73ffffffffffffffffffffffffffffffffffffffff83166000818152600160205260408082209390935591519091907fddf252ad1be2c89b69c2b068fc378daa952ba7f163c4a11628f55a4df523b3ef9061063e9085815260200190565b60405180910390a35050565b73ffffffffffffffffffffffffffffffffffffffff821660009081526001602052604090205461067b908290610885565b73ffffffffffffffffffffffffffffffffffffffff8316600090815260016020526040812091909155546106b0908290610885565b600090815560405182815273ffffffffffffffffffffffffffffffffffffffff8416907fddf252ad1be2c89b69c2b068fc378daa952ba7f163c4a11628f55a4df523b3ef9060200161063e565b803573ffffffffffffffffffffffffffffffffffffffff8116811461072157600080fd5b919050565b60006020828403121561073857600080fd5b610741826106fd565b9392505050565b6000806040838503121561075b57600080fd5b610764836106fd565b9150610772602084016106fd565b90509250929050565b60008060006060848603121561079057600080fd5b610799846106fd565b92506107a7602085016106fd565b9150604084013590509250925092565b600080604083850312156107ca57600080fd5b6107d3836106fd565b946020939093013593505050565b6000602082840312156107f357600080fd5b5035919050565b600060208083528351808285015260005b818110156108275785810183015185820160400152820161080b565b81811115610839576000604083870101525b50601f017fffffffffffffffffffffffffffffffffffffffffffffffffffffffffffffffe016929092016040019392505050565b60008219821115610880576108806108ea565b500190565b600082821015610897576108976108ea565b500390565b600181811c908216806108b057607f821691505b60208210811415610434577f4e487b7100000000000000000000000000000000000000000000000000000000600052602260045260246000fd5b7f4e487b7100000000000000000000000000000000000000000000000000000000600052601160045260246000fdfea2646970667358221220f90c4e0e7a13d0070efe6cfa9601c893db625bda4d41b39892eebed9721b708f64736f6c63430008060033a264697066735822122058a837572b671f20c16b22b416a2d6ffc706b7038697a6bac1f49fa6861f343164736f6c63430008060033",
  "linkReferences": {},
  "deployedLinkReferences": {}
}